:020000040800F2
:10000000C018002059020008075500082D440008B8
:1000100005550008BD0F0008195D0008000000002C
:100020000000000000000000000000009D0100082A
:100030004710000800000000F1010008E155000829
:1000400073020008730200087302000873020008BC
:1000500073020008730200087302000873020008AC
:10006000730200087302000873020008C10F000841
:10007000CD0F0008D90F0008E50F00087302000833
:10008000F10F000873020008B50E000873020008A3
:10009000730200087302000873020008730200086C
:1000A000730200081D570008730200080557000876
:1000B0002957000835570008000000003D4400089B
:1000C0003144000800000000000000007302000836
:1000D000000000000D5D00087302000873020008B4
:1000E0007302000873020008000000000000000016
:1000F0000000000000000000000000000000000000
:1001000000000000000000000000000000000000EF
:1001100000000000000000007302000873020008E5
:1001200000000000000000000000000000000000CF
:1001300000000000000000000000000000000000BF
:100140007302000873020008000000007302000838
:100150007302000873020008B93D0008730200082A
:100160007302000873020008000000000000000095
:10017000000000000000000000000000000000007F
:100180000000000073020008DFF80CD000F0BAFB9A
:1001900000480047817E0008C01800202B4B1968DA
:1001A0000868B0E8F04F80F30988BFF36F8F4FF015
:1001B000000080F3118870470000000006480068C6
:1001C000006880F3088862B661B6BFF34F8FBFF353
:1001D0006F8F00DF00BF00BF08ED00E0DFF80C000C
:1001E000016841F470010160704700BF88ED00E0D4
:1001F000EFF30980BFF36F8F144B1A681EF0100FD6
:1002000008BF20ED108A20E9F04F106008B44FF0CD
:10021000500080F31188BFF34F8FBFF36F8F08F04A
:10022000EDF94FF0000080F3118808BC19680868E8
:10023000B0E8F04F1EF0100F08BFB0EC108A80F34A
:100240000988BFF36F8F704700BF00BFB400002064
:10025000EFF30580704700000648804706480047D6
:10026000FEE7FEE7FEE7FEE7FEE7FEE7FEE7FEE766
:10027000FEE7FEE79D56000889010008202A04DBFE
:10028000203A21FA02F00021704721FA02F3D0400F
:10029000C2F12002914008431946704740EA010329
:1002A0009B0703D009E008C9121F08C0042AFAD22C
:1002B00003E011F8013B00F8013B521EF9D27047F0
:1002C000D2B201E000F8012B491EFBD27047002298
:1002D000F6E710B513460A4604461946FFF7F0FF45
:1002E000204610BD421C10F8011B0029FBD1801ACA
:1002F000704730B505460020034600E05B1C934282
:1003000005D2EC5CC85C201A01D1002CF6D130BDBE
:1003100070B5064606F0E0FF046805460A22002193
:10032000304600F0C7F82C6070BD00F0004230F09D
:1003300000400AD0C10D01F56071C0F3160042EA19
:100340000151C20840071143704700200146704721
:1003500001F0004330B421F0004150EA010206D020
:100360000A0DA2F56072C1F31301002A02DC30BC51
:1003700000207047440F44EAC104C100E01830BCBB
:1003800000EBC25000F0CEB830B50B46014600205D
:100390002022012409E021FA02F59D4205D303FA47
:1003A00002F5491B04FA02F52844151EA2F10102C8
:1003B000F1DC30BD2DE9F05F0546002092469B46FA
:1003C00088460646814640241BE02846414647466B
:1003D0002246FFF753FF53465A46C01A914110D3A5
:1003E00011461846224600F09FFA2D1A67EB0108C5
:1003F0004F4622460120002100F096FA17EB000933
:100400004E41201EA4F10104DFDC484631462A4655
:100410004346BDE8F09F00000FB4002300B589B04B
:100420000CA900910B996FF00042CB601E4B069314
:100430001E4B07930423CDE901321D4A0892024660
:100440006B46002000F034FB09B05DF814FB70B57A
:1004500086B006464FF0FF300091CDE90101002043
:1004600015460C4604903246694604A8FFF7D4FFAF
:1004700002460498211825B108B1084600E020463C
:100480002860049800280DD0002A02DD00988842D8
:1004900008D0081B0094CDE901043246694604A83F
:1004A000FFF7BAFF06B070BDE90C0008070D0008A1
:1004B000750900082DE9F04791460F46804604462D
:1004C000002614F8015B2DB100F050FA0068405D81
:1004D000C007F6D12B2D02D02D2D18D0641E4A4610
:1004E0003946204600F020FC27B13968A14201D1ED
:1004F000C7F8008071054FF002040BD54042002878
:1005000003DD06F0E9FE0460A007BDE8F08746F4CD
:100510008066E4E70028F8DA06F0DEFE04606FF09B
:100520000040F2E70029A8BF7047401C490008BFFF
:1005300020F00100704710B4B0FA80FC00FA0CF013
:1005400050EA010404BF10BC704749B1CCF120044B
:1005500021FA04F411FA0CF118BF012121430843D8
:10056000A3EB0C01CB1D4FEA00614FEA102042BF04
:10057000002010BC704700EBC35010440029A4BFFA
:1005800010BC7047401C490008BF20F0010010BC9F
:1005900070472DE9FE4F804681EA0300C00F0C46EC
:1005A000009021F0004123F00045B8EB0200A94182
:1005B00005D24046214690461C460B46024623F093
:1005C0000040104347D0270DC7F30A00C3F30A5178
:1005D0000290401A019040286BDAC3F3130040F4F4
:1005E000801B0098924620B10023D2EB030A63EBF4
:1005F0000B0B01985946C0F14002504600F094F9A7
:1006000006460D4650465946019A00F09CF910EBFB
:1006100008006141002487EA115284EAE7731A4313
:1006200040D0009A62B3019A012A4FEA075215DCC2
:10063000001B61EB02014FF0004202EA0752CDE9D4
:100640000042001C41F5801132462B4600F0CAFBE7
:1006500003B0BDE8F08F40462146F9E7001B61EB8F
:100660000201001C41F5801300185B412018A2F51F
:10067000001747EB030140EAD570B6196D4111E050
:100680006D084FEA360645EAC0754FEA0752001B6F
:1006900061EB0201001C41F5801149084FEA30006E
:1006A0000019514132462B4603B0BDE8F04F00F02F
:1006B0008ABB0098012240000023D0EB020263EBCA
:1006C000E073009821464FEAE074B8EB000061EB5C
:1006D0000401E9E783F000435BE781F0004158E75C
:1006E0002DE9FE4F81EA030404F0004421F00041AB
:1006F00000944FF0000B23F0004350EA01045ED059
:1007000052EA03045BD0C3F30A54C1F30A552C44E4
:10071000A4F2F3340194A0FB0254C1F3130141F499
:100720008011C3F3130343F4801301FB024400FB65
:10073000034E840A970A44EA815447EA8357A4FB8C
:10074000076802958D0A05FB07854FEA932C04FB89
:100750000C542705029D4FEA065847EA1637B5EBB9
:1007600008056EEB070C870E920E47EA811742EAE6
:100770008312A7FB0201B6EB0B0164EB00042B0D07
:1007800043EA0C335E1844EB1C50DA465146E7FB53
:100790000201C5F313044FEA0B3343EA14534FEA43
:1007A0000432019C43EA0603A4F10C040294009C69
:1007B000CDE900B400F016FB03B0BDE8F08F0020D7
:1007C0000146F9E72DE9F04D81EA030404F0004BFE
:1007D00021F0004514464FF0000A23F0004150EA92
:1007E000050220D054EA01021DD0C5F30A57024683
:1007F000C5F31303C1F31300C1F30A5640F4801587
:1008000043F48013A7EB0608101BD64608F2FD3808
:1008100073EB050002D308F1010801E092185B4177
:10082000B8F1000F03DA00200146BDE8F08D00208A
:100830004FF48011064684460EE0171B73EB050744
:1008400005D3121B63EB050306434CEA010C490870
:100850004FEA300092185B4150EA0107EDD152EAAD
:10086000030012D082EA040083EA0501084305D0A0
:10087000101BAB4106D20122002306E000224FF0FC
:10088000004302E06FF0010253101AEB06004CEB3C
:10089000085110EB0A0041EB0B01BDE8F04D00F0F0
:1008A00092BAC1F30A52C1F3130140F2FF3341F48B
:1008B00080119A4202DA00200146704740F2334329
:1008C0009A42A2F2334202DC5242FFF7D7BC00F058
:1008D0002BB8000030B5041E71F1000404DB4FF0AA
:1008E0000044404264EB0101141E73F1000405DB77
:1008F0001C464FF00043524263EB0403994208BF89
:10090000904230BD064C074D06E0E06840F0010320
:1009100094E8070098471034AC42F6D3FFF738FC50
:100920004C8A00086C8A0008202A04DB203A00FA6E
:1009300002F1002070479140C2F1200320FA03F336
:10094000194390407047202A06DBCB17203A41FA22
:1009500002F043EAE07306E041FA02F3D040C2F14C
:100960002002914008431946704700000048704734
:10097000248A000810B50446FFF7F8FF0068005D00
:1009800000F0010010BD00002DE9FF4F087883B092
:100990009946FF2805D0491C2D2804D000240020AA
:1009A00008E000200BE00124F9E700EB800003EBF6
:1009B0004000491C0B78FF2BF7D104B140420023C3
:1009C0000293147819461D462D2C01D02B2C04D1EE
:1009D000521C2D2C13D000240294AA461478FF2C0C
:1009E0000FD00A25A3FB057801FB05814FF0000C11
:1009F00003FB0C11521CE3194AEB0101EEE7012441
:100A0000EAE7814453EA010002D019F5C87F06DA0B
:100A100003980021C0E9001107B0BDE8F08F002560
:100A2000AE4E2F46DFF8B882184600F037FACDE90F
:100A30000001B9F1000002DAC9F1000400E0044647
:100A40000023A74A1AEB030B42EB045A12E0E0071B
:100A500007D02A46334638464146FFF741FE07464F
:100A600088462A46334610461946FFF739FE0546A2
:100A70000E466410002CEAD1DDE90001B9F1000F47
:100A80005A46534606DAFFF79DFE3A464346FFF7BD
:100A900099FE05E0FFF724FE3A464346FFF720FEA5
:100AA000029A0AB181F00041039AC2E90001B3E75A
:100AB0002DE9FF4F1F468DB0D7E901464FF0FF38B3
:100AC0002E2045464FF000090B90B9696D1C0E9819
:100AD0008847396A824688470028F6D1BAF1FF3F35
:100AE0000AD024F4D064002E11DDBAF12B0F08D007
:100AF000BAF12D0F0BD102E0404611B08DE744F45E
:100B00008064B9696D1C0E9888478246761E6946D6
:100B1000600501D52D2000E02B208DF8000001F1AB
:100B2000010B0DF1200809E0B9696D1C0E9888478A
:100B300082460F9844F40074761E0560002E02DD94
:100B4000BAF1300FF0D00B998A453ED144F08004C1
:100B500006E00F99681CA9F1010944F400740860CB
:100B6000B9696D1C761E0E98884782463028F0D0F1
:100B70002BE00B998A4505D1200603D444F080046C
:100B8000761E18E0504606F0A5FC08B30DF11301DF
:100B9000761E44F400748B4508D2AAF130000BF89D
:100BA000010B200607D5A9F1010003E0200602D4BD
:100BB00009F101008146A00502D50F99681C086063
:100BC000B9696D1C0E9888478246002ED1DC53E02F
:100BD000002E51DDBAF1650F02D0BAF1450F4BD1AD
:100BE000A00549D5B9696D1C24F44074761E0E9891
:100BF00088478246002E0CDD2B2804D0BAF12D0F39
:100C000007D144F48074B9696D1C0E9888478246F8
:100C1000761EE00501D52D2100E02B2108F8011BEF
:100C2000CDF82C8021E00DF12901761E44F40074EA
:100C300088450CD2AAF1300010F0FF0088F80000BF
:100C400002D10B99884509D908F1010806E0E005B1
:100C500001D5244801E042F20F708146B9696D1C4C
:100C60000E98884782460F980560002E04DD504696
:100C700006F030FC0028D6D1F9690E988847FF208D
:100C80008BF8000088F800000020069007904B4683
:100C90006A4608A906A8FFF777FEA00502D46FF000
:100CA00001002AE714F0240F0AD0E00714D1DDE98F
:100CB00006123868031D3B600068C0E900120BE0B3
:100CC000DDE90601FFF744FB0146E00704D138687F
:100CD000021D3A600068016028460EE700001440DB
:100CE0000000F03FF1D8FFFF426842B1016811F8FF
:100CF000013B23B1521EC0E9001218467047012182
:100D0000C160881E704742685AB1C368016843B920
:100D100083688B4205D0491E521CC0E90012002096
:100D200070474FF0FF3070472DE9F05F8246007842
:100D3000002715468B460AF10104B946302801D038
:100D40009DB113E014F8010B0127782803D058282F
:100D500001D045B10AE00DB1102D07D100271025B3
:100D600014F8010B02E0082500E00A250026B04631
:100D70000EE005FB080005FB06F1012701EB10461C
:100D80001FFA80F8B6F5803F00D3B94614F8010B7E
:100D9000294600F075F80028EBDABBF1000F05D00A
:100DA0000FB1641E00E05446CBF80040B9F1000FCB
:100DB00006D006F091FA02210160C81EBDE8F09F3E
:100DC00048EA0640FAE710B5141E73F1000408DA89
:100DD000401C41F1000192185B411A4301D120F0FF
:100DE000010010BD2DE9F04D92469B4611B1B1FABC
:100DF00081F202E0B0FA80F220329046FFF794FDD3
:100E000004460F4640EA0A0041EA0B0153465A469F
:100E1000084313D0114653EA010019D0C8F140022B
:100E20005046FFF72BFA05460E46504659464246B5
:100E3000FFF77AFD084305D0012004E0204639463B
:100E4000BDE8F08D0020054346EAE0762C433743A9
:100E50000A986305E40AA0EB08000022FD0A44EAB0
:100E600047540A3002D500200146E9E70105101970
:100E70006941DDE9084500196941BDE8F04DA2E787
:100E80003A2800D2303820F02002412A01D3A2F1C2
:100E90003700884201D34FF0FF3070470EB540F263
:100EA000334202920022CDE900221346FFF79AFF57
:100EB00003B000BD10B505F03DF8044800F0E8FAB5
:100EC000BDE81040024800F0E3BA00005C030020D7
:100ED000B003002070B504460068816801F003018A
:100EE000012926D10168C90723D0816801F00D01CD
:100EF000012910D1816841F002018160216803203D
:100F0000086000F0B1FF05460FE000BF00F0ACFF45
:100F1000401B022809D9606C40F010006064A06C8E
:100F200040F00100A064012070BD20688068C00707
:100F3000ECD1002070BD000070B5044600688168E7
:100F400001F00301012902D10168C90720D181689C
:100F5000104A11420DD1816841F00101816000F019
:100F600083FF05460FE000BF00F07EFF401B022814
:100F700009D9606C40F010006064A06C40F0010082
:100F8000A064012070BD20680068C043C007EBD199
:100F9000002070BD3F00008010B5074904462020A6
:100FA00081F869002046FFF79DF9214682B2BDE82D
:100FB0001040014802F0BABEDC060020FEE7000047
:100FC000014800F0C2BD000004040020014800F008
:100FD000BCBD000048040020014800F0B6BD000080
:100FE000F8050020014800F0B0BD00004C070020CB
:100FF000014800F0AABD0000B4050020054A0168C0
:1010000011441422B1FBF2F1890001640249C16369
:1010100070470000F8FFFDBF0000024030B590F8B7
:1010200040500124AC40C56B6C6004686360436849
:10103000102B036803D099600068C26030BD9A60CD
:101040000068C16030BD704701222021014800F0D6
:1010500006BF00000008004870477047704770479F
:1010600070B5026800234FF0A04495B0A24200D1B1
:10107000304C009490F84040012C1ED0012480F8A0
:101080004040926852074BD4009A9268520747D466
:10109000294A0D6840F61F743DB39568466B25F4E8
:1010A000604545EA46354E68354395600568AE684B
:1010B00006F00306012E06D102E0022015B070BD35
:1010C0002D68ED0731D1009DAD6805F00305012DB8
:1010D00003D1009D2D68ED0727D10D6889680D4368
:1010E0009168A1430D4395601FE0916821F4604130
:1010F000916001688D6805F00305012D02D1096832
:10110000C90712D10099896801F00301012903D1AF
:1011100000990968C90708D19168A143916004E06A
:10112000416C41F0200141640123002180F840100E
:101130001846C3E70001005000030050F0B595B019
:101140000025009590F840202E46012A19D001274D
:1011500080F8407003689A6852077CD44A681F245C
:10116000052A11D2D3F830C002EB4202520094405B
:101170002CEA040C0C6894404CEA040CC3F830C010
:1011800035E0022015B0F0BD0A2A0FD2D3F834C0E2
:10119000521F02EB4202520094402CEA040C0C68ED
:1011A00094404CEA040CC3F834C020E00F2A0FD25C
:1011B000D3F838C00A3A02EB4202520094402CEABB
:1011C000040C0C6894404CEA040CC3F838C00EE0E0
:1011D000D3F83CC00F3A02EB4202520094402CEA92
:1011E000040C0C6894404CEA040CC3F83CC0026840
:1011F000936813F00C0F4FF0070374D1D1F800E09F
:10120000BEF10A0F10D39469AEF10A0E0EEB4E0C2C
:1012100003FA0CFE24EA0E04D1F808E00EFA0CFEE4
:1012200044EA0E0494610FE0D2F814C00EEB4E04B1
:1012300003FA04FE2CEA0E0CD1F808E00EFA04FEC4
:101240004CEA0E0CC2F814C002684C69D2F80CC00B
:10125000CCF3C10C00E0E1E04FEA4C0C04FA0CF4D2
:10126000D1F810E0DFF810C2BEF1010F42D0BEF19C
:10127000020F4DD0BEF1030F58D0BEF1040F63D062
:10128000146E91F800C004F0F844B4EB8C6F03D1F5
:10129000146E24F0004414660268546E91F800C085
:1012A00004F0F844B4EB8C6F03D1546E24F0004486
:1012B00054660268946E91F800C004F0F844B4EBF0
:1012C0008C6F03D1946E24F0004494660268D46E4F
:1012D00091F800C004F0F844B4EB8C6F03D1D46EE5
:1012E00024F00044D4660268946804F00304012CDE
:1012F0003AD136E0D2F860E00EEA0C0E91F800C068
:1013000044EA8C644EEA040E4EF000441466EAE7A8
:10131000D2F864E00EEA0C0E91F800C044EA8C6446
:101320004EEA040E4EF000445466DCE7D2F868E062
:101330000EEA0C0E91F800C044EA8C644EEA040EEA
:101340004EF000449466CEE7D2F86CE00EEA0C0E44
:1013500091F800C044EA8C644EEA040E4EF000445A
:10136000C0E71468E4075ED1CC68012C06D052F8BF
:10137000B03F0C78A740BB43136020E052F8B04F59
:1013800091F800C007FA0CF73C4314600A6804683F
:101390000A2A0AD3A769093A02EB420293409F4303
:1013A0008B6893401F43A76109E06769521C02EBF9
:1013B000420293409F438B6893401F4367610968D3
:1013C0002E4A102904D0112905D0122906D02AE06E
:1013D00093681B0204E09368DB0101E093685B0201
:1013E000002B20DB03684FF0A044A34202D1244F1E
:1013F000009700E000949F6807F00307012F02D1D7
:101400001F68FF070AD1009F8FB1BF6807F003076D
:10141000012F0CD1009F3F68FF0708D0416C41F0BD
:1014200020014164012580F840602846AAE6102981
:1014300008D011291AD01229F5D1916841F4800100
:101440009160F0E7A342EED1916841F40001916010
:101450000C490D4A0968B1FBF2F101EB8101490029
:1014600000E0491E00910029FBD1DCE7A342DAD15C
:10147000916841F08071E3E700F0FF8300030050C2
:1014800000010050B000002040420F00704770473C
:1014900070B50446006801684FF0A045490702D5C1
:1014A0004168490705D40168090748D5416809071B
:1014B00045D5616CC90603D4616C41F40071616467
:1014C000D5F80813C9060DD0D5F8081301F01F018F
:1014D000052907D0D5F8081301F01F01092901D00B
:1014E000A84201D1C16800E0E968C26812F4406F07
:1014F0001FD189041DD4016809071AD581684907DD
:101500000FD4416821F00C014160606C20F48070C0
:101510006064606CC0040CD4606C40F001006064D6
:1015200007E0606C40F010006064A06C40F00100C7
:10153000A0642046FFF7AAFF21680C2008602068FD
:101540000168890602D54168890605D40168490603
:1015500062D5416849065FD5616C41F40051616410
:10156000D5F80813C9060DD0D5F8081301F01F01EE
:10157000052907D0D5F8081301F01F01092901D06A
:10158000A84201D1C16800E0E968C26C12F0C00F46
:1015900007D08A013AD4C26812F4406F36D1890468
:1015A00034D40168490631D5D5F80813C9060DD0E1
:1015B000D5F8081301F01F01062907D0D5F8081344
:1015C00001F01F01072901D0A84201D1C16800E044
:1015D000E96889021AD4816809070FD4416821F0AB
:1015E00060014160606C20F480506064606CC005F4
:1015F0000CD4606C40F00100606407E0606C40F067
:1016000010006064A06C40F00100A0642046FFF769
:1016100023FD2168602008602068016809060CD558
:101620004068000609D5606C40F480306064204654
:1016300000F052F921688020086020680168C9051F
:101640000DD54068C0050AD5606C40F40030606478
:101650002046FFF703FD21684FF480700860206882
:10166000016889050DD5406880050AD5606C40F495
:10167000802060642046FFF7F2FC21684FF4007080
:10168000086021680868C0061BD54868C00618D5E0
:10169000A06B012807D017488268D20627D080683F
:1016A00000F4404050B1606C40F480606064A06C15
:1016B00040F00200A0642046FFF7E9FE21681020F8
:1016C000086020680168490510D5416849050DD5B5
:1016D000616C41F480416164A16C41F00801A16436
:1016E0004FF4806101602046FFF7B7FC70BDC86809
:1016F000C007D7E700030050F0B54FF0000595B0E4
:1017000004002F462E46009505D0606CC00648D4D4
:10171000606C18B133E0012015B0F0BDA6642665F9
:10172000E66484F84060204600F0D8F820688068BD
:10173000C00024D42046FFF7CDFB0546606CC006F0
:101740001DD4E5B9606C20F4885040F0020060645C
:101750002068816821F0405181602068816841F0F3
:1017600080518160564857490068B0FBF1F000EBAA
:101770008000400000E0401E00900028FBD120685F
:101780008168C90002D5806880000AD5606C20F0AD
:10179000020040F010006064A06C40F00100A06402
:1017A0000125606CC0067DD4002D7BD12068816846
:1017B00049077CD4616C21F4807141F002016164BD
:1017C00041494FF0A042904200D1404A00928268C5
:1017D00002F00302012A02D10068C00710D100986C
:1017E00040B1806800F00300012803D10098006830
:1017F000C00705D18868626820F4403010438860D3
:10180000D4E902100843A16B012902D04FF48052A1
:1018100000E00022E16942EA41321043626A384343
:10182000012A0AD1A9B1616C21F0020141F0200125
:101830006164A16C41F00101A164E16A012902D057
:10184000226B1143084321688A6812F00C0F08D0FC
:1018500012E0218D1E4A02EB4141014341F48030E8
:10186000EBE7CA6844F202039A43CA60A169626B5B
:10187000890341EA420108432168CA68154B1A40AE
:101880000243CA60206901282068016B21F00F0122
:1018900002D1226A521E11430163A664606C20F0DB
:1018A000020000E003E040F00100606406E0606CCC
:1018B00020F0020040F010006064012528462BE76C
:1018C000B000002040420F00000300500001005013
:1018D0000000FEFF07C0F0FF704700002DE9F04751
:1018E00086B0054614216846FEF7F1FC3C4AD5F85F
:1018F00000C000241068032780263A49401C4FF09E
:1019000090434FF480794FF4806ABCF1A04F07D028
:10191000DFF8D480C44533D11060012833D03AE0D9
:101920001060012807D1486940F08050486148693B
:1019300000F080500590486940F4003048614869E3
:10194000694600F4003005900F20CDE900070294AD
:10195000184600F0BFF9264F2448E7E80204801437
:10196000A7E8500667E80640214831E0EF6300220F
:10197000052112207D6200F0DBFF122000F0CCFF79
:1019800006B0BDE8F087486940F08050486148697A
:1019900000F080500590486940F400304861486983
:1019A000694600F4003005903020CDE9000702942C
:1019B000184600F08FF90E4F0C4844371430E7E812
:1019C00002040B48A7E85006443047F81849FC6168
:1019D00000F00FF90028C9D0FFF736FBC6E700007A
:1019E0009400002000100240000100500800024056
:1019F0000404002070B5044600688068400779D46C
:101A000094F8400001280CD0012084F840002046C2
:101A1000FFF792FA01004FF0000204D084F8402052
:101A200069E0022070BD606C40F60163984340F4A9
:101A3000807060644FF0A040D0F80833DB0602D01D
:101A40002368834206D1636C23F4801363642368A4
:101A5000DB6807E0656C45F480156564274DAB4293
:101A600008D1C3689B0105D5636C23F4005343F48C
:101A700080536364636CDB0404D5A36C23F006031A
:101A8000A36400E0A26484F8402023681C221A604A
:101A90006269082A2268536802D043F00C0306E00A
:101AA00023F0040353602268536843F00803536033
:101AB000A26B012A04D12268536823F010035360FB
:101AC000D0F80823D2060ED0D0F8082302F01F0267
:101AD000052A08D0D0F8082302F01F02092A02D0F4
:101AE0002268824207D12068826842F00402826044
:101AF00001E0FFE70221084670BD00000001005030
:101B000010B590F821100024022903D0042181632C
:101B1000012418E001680A6822F00E020A600168D8
:101B20000A6822F001020A6090F84020C36B01218C
:101B300001FA02F25A6080F82110002180F820108A
:101B4000416B01B18847204610BDF0B4C16B0D68F0
:101B500001680C68066C042202FA06F32B420FD0CF
:101B600063070DD50B689B0603D40B6823F00403B1
:101B70000B6090F840108A40C16B4A60C16A1BE05C
:101B8000022303FA06F72F424FF0000C4FF0010238
:101B900016D0A70714D50C68A40605D40C6824F049
:101BA0000A040C6080F8212090F840108B40C16B33
:101BB0004B6080F820C0816A002918D0F0BC08472B
:101BC0000823B3402B4212D0230710D50B6823F013
:101BD0000E030B6090F84010C36B02FA01F15960DC
:101BE000826380F8212080F820C0016BE4E7F0BC1C
:101BF000704770B5040021D0022084F821002268CB
:101C0000116843F6F0708143D4E901031843D4E925
:101C100003352B43184363691843A3691843E369E9
:101C20001843084310602046FFF7E8F90020A0633E
:101C3000012184F8211084F8200070BD012070BDBE
:101C400070B5044690F82000002501280CD0012032
:101C500084F8200094F821600020012E06D084F83A
:101C600020000225284670BD022070BD022684F89F
:101C70002160A0632068066826F001060660204601
:101C8000FFF7CCF9E06A00282068016802D041F033
:101C90000E0106E041F00A0101602068016821F0B0
:101CA000040101602068016841F001010160D9E789
:101CB00070B5044600F0D8F80546601C02D0044810
:101CC0000078044400F0D0F8401BA042FAD370BD65
:101CD000A40000202DE9F84FDFF860B100234FF099
:101CE000010C4FF0030A4FF00F090BF1040E9DE0B9
:101CF0000CFA03F6344022007ED04C68022C01D04E
:101D0000122C0ED1DC0800EB8408D8F820405D07C7
:101D1000EF0E09FA07F5AC430D69BD402543C8F83D
:101D2000205007685D0091F804800AFA05F408F075
:101D30000308A74308FA05F848EA0708C0F8008036
:101D40004F68012F05D0022F03D0112F01D0122F81
:101D500011D18768D1F80C80A74308FA05F848EA42
:101D60000708C0F808804768B7430E79C6F3001625
:101D70009E403E434660C668A6438C68AC403443F0
:101D8000C4604C68E40050D52D4CA56945F00105B0
:101D9000A561A46923F0030504F001040094294C13
:101DA0002E19B4689D072F0F09FA07F5AC43B0F15F
:101DB000904F04D0244DA84203D101250CE000250A
:101DC0000AE0224DA84201D1022505E0204DA8429B
:101DD00001D1032500E00525BD402543B560DBF8B2
:101DE00000405D464E689443F60300D514432C60D2
:101DF0007546DEF8004000E017E04E689443B603F5
:101E000000D514432C600D4D08352C684E68944362
:101E1000F60200D514432C60084D0C352C684E6832
:101E20009443B60200D514432C605B1C0A68144628
:101E3000DA407FF45DAFBDE8F88F00000004014098
:101E40000010024000000140000400480008004863
:101E5000000C00480069084000D0012070470AB11A
:101E60008161704781627047014880687047000057
:101E7000A400002030B590F8C120022A31D090F89B
:101E8000C020012A2DD0012480F8C040022280F811
:101E9000C1200368D3F8A02322F002050A682A4370
:101EA00022F03C054A682A4322F470758A682A4366
:101EB00022F48065CA682A430D69C3F8A4530568F3
:101EC0004B69C5F8A83303688969C3F8AC13016886
:101ED000C1F8A02380F8C140002180F8C010084656
:101EE00030BD022030BD10B590F8C120022A16D0B6
:101EF00090F8C020012A12D0012400F8C04F02221D
:101F0000427050F8C03CD3F8A02322F001020A43EB
:101F1000C3F8A023447000210170084610BD0220C0
:101F200010BD7047704770477047704770477047E3
:101F30007047704790F8C020012A13D0012280F822
:101F4000C020022280F8C1200268D2F8CC034B1CCA
:101F50000AD020F00D00084340F00200C2F8CC0384
:101F6000002070470220704720F0020040F001007E
:101F7000F4E7000070B590F8C130022B29D090F83A
:101F8000C030012B25D0012500F8C05F022343702B
:101F900050F8C04CB82303EBC116A1590E4B1940A1
:101FA00013680B435168194393680B431169194334
:101FB000D3680B43918A43EA014193690B43116A49
:101FC000D26919430A43A2514570002101700846A5
:101FD00070BD022070BD00000020003C70477047BB
:101FE0007047704770477047FF2903D0052903D019
:101FF00002F083B801F01DBF01F084BF38B50400C2
:1020000054D0022084F8C1000025C4F8C450C4F89C
:10201000C850C4F8CC50C4F8D050C4F8D450C4F858
:10202000D850207AC0071BD021492068884208D1A7
:102030002048816941F000518161806900F00050C1
:1020400000902168086820F44042208A00F4404053
:10205000104320F44052A08A00F44050104308601E
:10206000204600F029F8207A800708D52168086802
:1020700020F44072A08900F44070104308600120F1
:1020800084F8C10084F8C0505FF00001C1EBC100CA
:1020900004EB8000491C8561C5610562456285626B
:1020A000C9B205630529F1D9002038BD012038BD2A
:1020B000007401400010024008B500680B498842D6
:1020C00012D10B48816941F0005181618069002281
:1020D00000F0005000900521462000F029FCBDE8EA
:1020E0000840462000F018BC08BD00000074014004
:1020F00000100240F0B587B0044614216846FEF790
:10210000E6F815492068884224D11448416941F411
:1021100080214161416901F480210591416941F4C7
:10212000003141614069022400F4003005904FF411
:102130004050002503260D278DE8F1006946084828
:10214000FFF7C8FDB0028DE8F10069464FF09040FE
:10215000FFF7C0FD07B0F0BD007401400010024061
:1021600000040048704770477047704770B50D46CF
:102170000446FFF779FE06460CE0681C0AD025B13C
:10218000FFF772FE801BA84204D9072084F8C10023
:10219000032070BD2068D0F88803C043C003ECD48E
:1021A000012084F8C100002084F8C00070BD704791
:1021B00070477047704770B590F8C130022B23D03C
:1021C000022380F8C130052920D08023046803EB66
:1021D000C115635923F007069368334323F01806AB
:1021E000D368334363519425046805EBC115136824
:1021F00063519824036804EBC11152685A500121BD
:1022000080F8C110002070BD022070BD03681968FD
:1022100021F007049168214321F01804D16821437B
:102220001960036811685961516802689161E6E7B5
:1022300010B590F8C020012A0ED0012200F8C02F5E
:102240000223437050F8C03C1C680C431C60427071
:1022500000210170084610BD022010BD10B590F895
:10226000C020012A0ED0012200F8C02F02234370A3
:1022700050F8C03C1C688C431C6042700021017007
:10228000084610BD022010BD70B5044690F8C1008C
:10229000022811D094F8C00001280ED0012584F83E
:1022A000C050022084F8C100204601F0BFFE84F82F
:1022B000C150002084F8C00070BD022070BD10B570
:1022C00090F8C020012A10D0012200F8C02F02236C
:1022D000437050F8C03CD3F894430C43C3F8944384
:1022E000427000210170084610BD022010BD10B5DB
:1022F00090F8C020012A10D0012200F8C02F02233C
:10230000437050F8C03CD3F898430C43C3F898434B
:10231000427000210170084610BD022010BD30B58A
:1023200090F8C140022C14D090F8C040012C10D07D
:10233000012480F8C040022580F8C150202A21D015
:102340000EDC042A17D006DC012A14D0022A23D17D
:1023500018E0022030BD082A14D0102A1CD10AE04F
:10236000402A08D0802A0DD0B2F5807F03D0B2F584
:10237000007F11D106E00268012B01D0C02305E0E7
:10238000BC2303E00268012B0DD0C82303EBC1116D
:10239000535843F00103535080F8C140002180F8A6
:1023A000C010084630BDC423F0E72DE9F0410546D2
:1023B00090F8C10014460E46022825D095F8C000BA
:1023C000012823D0012785F8C070022085F8C100BC
:1023D000052E1DD0284601F07BFFC6EBC60005EB9D
:1023E00080002168016261684162A1688162E168E0
:1023F000C162216901633146284601F0EDFC85F890
:10240000C170002085F8C000BDE8F0810220FBE724
:1024100028680168D0F8A02321F0200361691943DE
:1024200021F40063A169194321F48063E169194330
:1024300021F0C063216A194321F00063616A1943E6
:10244000A36A21F0404141EA830121F00053216B4E
:10245000194322F48033E26A01601A432868C0F805
:10246000A023BAE790F84120202A24D190F84020F8
:10247000012A20D0012280F84020242280F8412027
:102480000268136823F0010313600268136823F4E1
:1024900080531360026813680B43136001680A6875
:1024A00042F001020A60202180F84110002180F8EA
:1024B0004010084670470220704790F84120202ABB
:1024C00022D190F84020012A1ED0012280F840201D
:1024D000242280F841200268136823F0010313606E
:1024E0000268136823F4706343EA012111600168F4
:1024F0000A6842F001020A60202180F841100021A0
:1025000080F84010084670470220704770477047B7
:1025100030B403689A691968D40508D50C0606D545
:10252000446C44F0010444644FF48074DC6153054E
:1025300009D50B0607D5436C43F0080343640468D0
:102540004FF48063E361920509D5090607D5416C14
:1025500041F00201416402684FF40071D161416CA5
:1025600011F00B0F03D0416C30BC02F061B830BCED
:102570007047026891691268436B002B00D01847BE
:102580007047704790F841007047000070B5040034
:1025900004D094F84100002510B106E0012070BD80
:1025A00084F84050204600F0CFF8242084F8410001
:1025B0002068016821F0010101606068216820F055
:1025C000706008612068816821F400418160E068E2
:1025D0000128A06807D040F4044021688860E068C2
:1025E000022803D006E040F40040F6E721684FF4EB
:1025F0000060486020684168114A114341602068CA
:10260000C16821F40041C160D4E904010843A16913
:1026100040EA01202168C860D4E907010843216825
:1026200008602068016841F00101016065642020B4
:1026300084F84100256384F84250002070BD0000FA
:102640000080000270477047704700002DE9F84392
:10265000044690F8410094468846202863D12068BB
:102660008069C04300045ED594F8400001285AD028
:10267000012084F84000212084F84100102084F8D3
:10268000420000256564C4F824C063852748E062E1
:1026900027486063608D274FFF2803D9FF202085DE
:1026A000FE0207E0608D20854FF0007300041E4697
:1026B000000C28D0A16B20488862A16B1F480863DA
:1026C000A06B6146C562A06B45632268238D2832EA
:1026D000A06BFFF7B5FA009794F8282033464146DF
:1026E000204602F015FB608D218D401A608584F82C
:1026F00040501121204601F015FF2068016841F487
:10270000804101600CE00E48606300222046009783
:1027100002F0FEFA84F840500121204601F002FF49
:102720000020BDE8F8830220FBE700000000FFFF67
:10273000B1490008002000808D4400087B44000857
:10274000754A000870477047F0B587B006461421F7
:102750006846FDF7BCFD3249306888425DD1314D95
:10276000686940F4802068616869002400F4802072
:1027700005904FF4407000901220CDE90104032031
:1027800003900420049069462748FFF7A3FAE869FC
:1027900040F40010E861E869254D00F40010059050
:1027A0002248802701C5102091C54FF4405045F8BC
:1027B00010496C61C5E906401D48FFF71AFA08B1D7
:1027C000FEF742FCB5636E62194D184844353C383B
:1027D000C5E90004C5E902472C616C61AC6128467B
:1027E000EC61FFF706FA08B1FEF72EFC1148016D07
:1027F00041F010010165F563002205211F206E6282
:1028000000F096F81F2000F087F800220521202014
:1028100000F08EF8202000F07FF807B0F0BD000037
:102820000054004000100240000400486C000240C8
:10283000B4050020000001407047704702488168DD
:102840000278114481607047A4000020074810B549
:10285000016841F010010160032000F089F80020B8
:1028600000F006F800F03EF8002010BD0020024005
:1028700000B5014687B000221C2000F059F81C204A
:1028800000F04AF81448C16941F00101C161C06912
:1028900005A900F001000690684600F0F1F900F08B
:1028A0000FFA0E494000B0FBF1F10D484FF08042A5
:1028B000491E0260416040F2E7320021C0E9032175
:1028C000816000F0DFFD10B1012007B000BD0448B9
:1028D00000F0F4FDF9E700000010024040420F0054
:1028E000900700200B4882B0816941F001018161AD
:1028F000816901F001010091C16941F08051C1611C
:10290000C069002200F0805000900F21901E02B09C
:1029100000F00EB80010024000F01F0201219140AB
:102920004009800000F1E020C0F80011704700006D
:10293000F0B40E4B1B680C46C3F30223C3F107052A
:10294000042D00D90425191D072901D2002300E018
:10295000DB1E012606FA05F1491E214099409E40E2
:10296000761E16403143F0BC02F0CEBD0CED00E007
:10297000064900F0070208684FF6FF03184040EAD6
:102980000220034A10430860704700000CED00E08D
:102990000000FA050248016821F480710160704767
:1029A000007000400248016841F480710160704786
:1029B000007000402DE9F84F044600685C4DC003EC
:1029C0006FD5E8690026C00008D4E86940F080505F
:1029D000E861E869012600F08050009055480168E0
:1029E000C90512D40168804641F480710160FFF787
:1029F0003BFA074605E000BFFFF736FAC01B642824
:102A000035D8D8F80000C005F6D5286A10F4407013
:102A100053D0A18801F4407181424ED0286A4FF40E
:102A2000803191FAA1F2B2FA82F29700424A4FF055
:102A30000108174420F44070C7F8008491FAA1F10E
:102A4000B1FA81F102EB81010023C1F80034286260
:102A5000C00732D0FFF708FA074641F2883A4FF034
:102A6000020907E0FFF700FAC11B514502D9032014
:102A7000BDE8F88F99FAA9F1B1FA81F141F040016E
:102A80004846B8EB511F01D129680CE090FAA0F13B
:102A9000B1FA81F141F04001B0EB511F02D1296A36
:102AA00001E015E0696A99FAA9F0B0FA80F000F047
:102AB0001F0008FA00F21142D4D0286A616820F49D
:102AC0004070084328621EB1E86920F08050E86138
:102AD0002078C00705D0286BA16820F003000843C8
:102AE00028632078800605D5286BE16820F0100067
:102AF000084328632078000605D5E86A216920F498
:102B0000F8700843E8622088C00405D5286B616925
:102B100020F48070084328632088400405D5286B82
:102B2000A16920F48050084328630020A0E700003A
:102B30000010024000700040000042422DE9F047C2
:102B40000F46050069D04A4E306800F00700B842D1
:102B500009D2306820F0070038433060306800F058
:102B60000700B84259D12878424C800705D56068E3
:102B7000A96820F0F000084360602878C0073DD0C5
:102B80006968012001290DD0022923D05FF00203DA
:102B900093FAA3F2B2FA82F242F02002520904D070
:102BA000226803E04FF40033F2E7626A93FAA3F37A
:102BB000B3FA83F303F01F03984002422DD06068FC
:102BC00020F0030008436060FFF74EF9804641F2B1
:102BD00088390CE04FF00073DAE700BFFFF744F9E3
:102BE000A0EB0801494502D90320BDE8F0876068E1
:102BF000696800F00C00B0EB810FEFD1306800F095
:102C00000700B8420BD9306820F007003843306025
:102C1000306800F00700B84201D00120E5E72878CD
:102C2000400705D56068E96820F4E060084360600B
:102C30002878000706D56068296920F4605040EACA
:102C4000C100606000F06CF86168F02292FAA2F2B4
:102C500001F0F001B2FA82F2D140074A515CC8405B
:102C6000064908600020FFF703FE0020BDE70000D2
:102C7000002002400010024088890008B0000020B7
:102C80000F2202600C4A536803F003034360536849
:102C900003F0F0038360536803F4E063C360526899
:102CA0004FF4E06303EAD20202610448006800F0D6
:102CB000070008607047000000100240002002403A
:102CC00008480949006849684FF4E06292FAA2F2A4
:102CD00001F4E061B2FA82F2D140044A515CC8408A
:102CE00070470000B00000200010024098890008E2
:102CF00008480949006849684FF4605292FAA2F204
:102D000001F46051B2FA82F2D140044A515CC840E9
:102D100070470000B00000200010024098890008B1
:102D2000144B10B55A68144802F00C0104291DD048
:102D300008291BD14FF4701494FAA4F402F4701112
:102D4000B4FA84F4E1400D4CDB6A615C0F2494FA20
:102D5000A4F403F00F03B4FA84F4E340074C1034F6
:102D6000D203E35C03D5B0FBF3F0484310BD044845
:102D7000484310BD0010024000127A006889000824
:102D800000093D002DE9F84F040071D02078FB4D7B
:102D9000C0074FF0010625D068687704C0F38100B2
:102DA000012807D06868C0F3810002281BD1686839
:102DB000C00318D597FAA7F0B0FA80F040F02000D1
:102DC000400901D0286800E0686A97FAA7F1B1FAD3
:102DD00081F101F01F0106FA01F1084265D0606837
:102DE0000028D2D061E06068B0F5803F0BD010B110
:102DF000B0F5A02F17D0286820F48030286028680C
:102E000020F4802002E0286840F480302860E86ADE
:102E1000A16820F00F000843E862606820B3FFF764
:102E200023F880460AE0286840F480202860EAE71A
:102E3000FFF71AF8A0EB0800642872D897FAA7F0F9
:102E4000B0FA80F040F02000400901D0286800E08E
:102E5000686A97FAA7F1B1FA81F101F01F0106FA49
:102E600001F10842E4D020E0FEF7FEFF804607E0D3
:102E7000C7E000BFFEF7F8FFA0EB08006428DCD82D
:102E800097FAA7F0B0FA80F040F02000400901D096
:102E9000286800E0686A97FAA7F1B1FA81F101F0B9
:102EA0001F0106FA01F10842E4D12078DFF8D08250
:102EB00080074FF0000A4FF0020759D568684FF0BD
:102EC000F80B10F00C0F07D06868C0F381000228DF
:102ED0001BD16868C00318D497FAA7F0B0FA80F045
:102EE00040F02000400901D0286800E0686A97FAA5
:102EF000A7F1B1FA81F101F01F0106FA01F10842D0
:102F00002BD0206901287CD127E0206988B396FA6C
:102F1000A6F0B0FA80F048F82060FEF7A5FF8146E1
:102F200006E055E1FEF7A0FFA0EB0900022884D8D7
:102F300097FAA7F0B0FA80F040F02000400901D0E5
:102F4000286800E0686A97FAA7F1B1FA81F101F008
:102F50001F0106FA01F10842E4D028689BFAABF29F
:102F60006169B2FA82F220F0F800914008432860CB
:102F700025E0FFE796FAA6F1B1FA81F148F821A021
:102F8000FEF772FF814605E0FEF76EFFA0EB090039
:102F90000228CCD897FAA7F0B0FA80F040F02000D1
:102FA000400901D0286800E0686A97FAA7F1B1FAF1
:102FB00081F101F01F0106FA01F10842E4D1207805
:102FC00000076AD5A069A0B396FAA6F0B0FA80F01F
:102FD00008EB8000C0F88064FEF746FF814605E0FC
:102FE000FEF742FFA0EB09000228A0D897FAA7F04D
:102FF000B0FA80F040F06000B6EB501F02D12868B4
:103000000CE077E197FAA7F0B0FA80F040F06000AA
:10301000B7EB501F01D1286A00E0686A97FAA7F160
:10302000B1FA81F101F01F0106FA01F21042D7D086
:1030300033E0FFE796FAA6F0B0FA80F008EB8000E4
:10304000C0F880A4FEF710FF814605E0FEF70CFFF4
:10305000A0EB090002289CD897FAA7F0B0FA80F0FC
:1030600040F06000B6EB501F01D128680BE097FAE2
:10307000A7F0B0FA80F040F06000B7EB501F01D12C
:10308000286A00E0686A97FAA7F1B1FA81F101F0C5
:103090001F0106FA01F21042D8D12078400774D5FA
:1030A000E8694FF00009C00009D4E86940F0805099
:1030B000E861E8694FF0010900F080500090314864
:1030C0000168C90512D4016841F480710160FEF7FE
:1030D000CBFE834606E000BFFEF7C6FEA0EB0B006A
:1030E000642875D827480068C005F5D5E068012830
:1030F0000AD008B1052811D0286A20F00100286202
:10310000286A20F0040002E0286A40F001002862EA
:10311000E068C8B3FEF7A8FE83460DE0286A40F0D9
:1031200004002862F0E700BFFEF79EFEA0EB0B0153
:1031300041F2883081424BD897FAA7F0B0FA80F07C
:1031400040F04000B6EB501F01D128680BE097FA21
:10315000A7F0B0FA80F040F04000B7EB501F01D16B
:10316000286A00E0686A97FAA7F1B1FA81F101F0E4
:103170001F0106FA01F21042D6D035E000100240DD
:10318000000042420070004000E034E0FEF76CFEB8
:10319000834607E0FEF768FEA0EB0B0141F28830A2
:1031A000814215D897FAA7F0B0FA80F040F04000BD
:1031B000B6EB501F01D128680CE097FAA7F0B0FADF
:1031C00080F040F04000B7EB501F02D1286A01E0C8
:1031D00083E0686A97FAA7F1B1FA81F101F01F0163
:1031E00006FA01F21042D5D1B9F1000F03D0E86917
:1031F00020F08050E861E06980B36968C1F3810123
:10320000022977D04FF080714F00022809D091FA3F
:10321000A1F0B0FA80F048F820A0FEF725FE0446A1
:103220005EE050468A4691FAA1F1B1FA81F1C146B9
:1032300048F82100FEF718FE804605E0FEF714FE70
:10324000A0EB0800022848D897FAA7F0B0FA80F05F
:1032500040F02000400902D0286801E056E0686A8A
:1032600097FAA7F1B1FA81F101F01F0106FA01F115
:103270000842E3D1D4E908100843696821F47411C5
:10328000084368609AFAAAF0B0FA80F049F8206022
:10329000FEF7EAFD044604E0FEF7E6FD001B022807
:1032A0001BD897FAA7F0B0FA80F040F02000400950
:1032B00001D0286800E0686A97FAA7F1B1FA81F1B5
:1032C00001F01F0106FA01F10842E5D01EE000BF3F
:1032D000FEF7CAFD001B022802D90320BDE8F88FC3
:1032E00097FAA7F0B0FA80F040F02000400902D031
:1032F000286801E00CE0686A97FAA7F1B1FA81F159
:1033000001F01F0106FA01F10842E1D10020E5E7D2
:103310000120E3E70068503050F821007047006852
:10332000503040F82120704770B5040002D0607F13
:1033300010B106E0012070BD00202077204600F08B
:1033400049F8022060772168CA204862216853202A
:103350004862204602F0E8F8FF25042618BB2068E2
:1033600081681B4A11408160216888686268104347
:10337000D4E904231A43104388602168E068086197
:1033800020680169228941EA024101612068C1681F
:1033900021F08001C16020688068800607D4204643
:1033A00000F02CF818B1206845626677C2E7206803
:1033B000016C21F4802101642068016CA269114331
:1033C00001642068456201206077002070BD000024
:1033D000BFFF8FFF0068074988420AD10120C1035F
:1033E00091FAA1F1044AB1FA81F102EB8101C1F82D
:1033F00000047047002800400000424270B50446B7
:103400000068C16821F0A001C160FEF72DFD0546EE
:103410004FF47A7607E000BFFEF726FD401BB0426E
:1034200001D9032070BD2068C0688006F4D5002053
:1034300070BD70477047704730B590F83C20012A46
:103440001CD0012280F83C2003685A689C680C4D0F
:10345000AB4203D122F470054A682A4322F070057A
:103460000A6889682A4324F0800421435A6002686C
:103470009160002180F83C10084630BD022030BD2C
:10348000002C014010B5040003D094F83D0010B1A9
:1034900007E0012010BD002084F83C00204600F029
:1034A0000CF8022084F83D00211D206802F050F93C
:1034B000012084F83D00002010BD70470168CA68F3
:1034C00042F00102CA600068016841F00101016038
:1034D000002070472DE9F0410D46040003D094F818
:1034E0003D0018B108E00120BDE8F081002084F81B
:1034F0003C00204600F03CF8022084F83D002068A3
:1035000081681A4A11408160211D206802F020F96B
:10351000226890689169166A2B68AF69034340F28C
:103520000330814341EA0721A868EF6908434FF659
:10353000FC418843E96840EA0720014328692F6A73
:10354000000140EA0730084369686D6926F0AA0661
:1035500046EA05152943936022689061206801625C
:10356000012084F83D000020BEE70000F8FFFEFFC8
:1035700010B586B0044614216846FCF7A8FE1B4926
:10358000206888422FD11A48816941F40061816125
:10359000816901F400610591416941F400314161A3
:1035A0004069694600F4003005904FF44070009087
:1035B00002200190002002900390062004904FF01A
:1035C0009040FEF787FB002205211920FFF7B0F994
:1035D0001920FFF7A1F9002205211B20FFF7A8F908
:1035E0001B20FFF799F906B010BD0000002C014028
:1035F0000010024010B50446006889B104294FF05C
:10360000010216D0002102F0E7F80122042120680F
:1036100002F0E2F82068C16841F00201C1600BE0ED
:103620000122002102F0D8F82068C16841F00201AF
:1036300006E0042102F0D0F82068C16841F00401DE
:10364000C1602068016841F001010160002010BDE7
:10365000704700002DE9F041044690F83C000D460B
:1036600001283DD0012684F83C60022084F83D000A
:10367000AAB3042A46D02068082A55D0D5E90027E5
:10368000E968036A23F480530362D0F81CC0036A1C
:103690002CF4407C4CEA07274FF6FF7C27F4704758
:1036A0000CEA013139434FF4204723F4204307EA61
:1036B00002321A43C16102622068C16921F440618B
:1036C000C1612068C169AA6841EA0221C0F81C10E2
:1036D00084F83D60002084F83C00BDE8F08101E002
:1036E0000220FAE7D5E90012EB68206802F080F8C2
:1036F0002068816921F00C01816120688169AA68D4
:1037000011430FE0D5E90012EB68206802F09CF845
:103710002068816921F44061816120688169AA681B
:1037200041EA02218161D3E7D5E9002C2F7B016AB0
:1037300021F480710162C169036A21F0030141EA49
:103740000C0121F0F00C39074FF420674CEA1161AD
:1037500023F4206307EA02221A43C161026220684F
:10376000C16921F00C01C1612068C169AA681143D7
:10377000ACE710B5040003D094F83D0010B107E0A9
:10378000012010BD002084F83C00204600F00CF819
:10379000022084F83D00211D206801F0D9FF01209E
:1037A00084F83D00002010BD10B586B004461421F9
:1037B0006846FCF78CFD16492068884225D11548DB
:1037C000C16941F00201C161C16901F002010591C5
:1037D000416941F4002141614069002100F4002069
:1037E00005904FF4807000900220CDE90101CDE9F1
:1037F000031069460848FEF76DFA002205211D20D6
:10380000FFF796F81D20FFF787F806B010BD0000FF
:1038100000040040001002400008004810B5026893
:10382000044631B1042908D0082915D00C2908D143
:1038300016E0D06840F0020002E0D06840F00400DA
:10384000D0600122206801F0C7FF2068016841F0C4
:1038500001010160002010BDD06840F00800EFE7D2
:10386000D06840F01000EBE770B5044600680169CD
:103870004FF00005C943890715D4C168C9438907BA
:1038800011D4E91E0161012020772068806980073A
:10389000204602D0FFF7DCFE04E000F0A7F8204647
:1038A00000F0A5F8257720680169C943490717D4B6
:1038B000C168C943490713D46FF0040101610220B4
:1038C00020772068806910F4407F204602D0FFF7FF
:1038D000BFFE04E000F08AF8204600F088F8257763
:1038E00020680169C943090716D4C168C94309079B
:1038F00012D46FF008010161042020772068C069AC
:103900008007204602D0FFF7A3FE04E000F06EF827
:10391000204600F06CF8257720680169C943C90684
:1039200017D4C168C943C90613D46FF010010161EF
:10393000082020772068C06910F4407F204602D01C
:10394000FFF786FE04E000F051F8204600F04FF843
:10395000257720680169C943C90708D1C168C943EF
:10396000C90704D1891E0161204600F041F8206892
:103970000169C943090609D4C168C943090605D4C8
:103980006FF0800101612046FFF754FD2068016956
:10399000C943C90509D4C168C943090605D46FF4F0
:1039A000807101612046FFF744FD20680169C94329
:1039B000490609D4C168C943490605D46FF04001DE
:1039C0000161204600F03DF820680169C94389067D
:1039D0000BD4C168C943890607D46FF02001016187
:1039E0002046BDE87040FFF726BD70BD70477047A8
:1039F0000068B0F1804F01D1FEF720BF704790F80A
:103A00003C300022012B0AD0012380F83C3041B128
:103A1000042909D008290AD00C290DD10AE0022076
:103A2000704701684A6B07E001688A6B04E001682F
:103A3000CA6B01E001680A6C002180F83C10104656
:103A4000704770477047704770B503680446D8697F
:103A5000196810F00F0508D1820606D58A0604D52C
:103A60002046BDE8704002F00CB89A68002D66D080
:103A700002F0010501F490762E4360D0C60707D00E
:103A8000CE0505D501261E62E36E43F00103E36611
:103A9000830708D5D30706D0266802233362E36E76
:103AA00043F00403E366430708D5D20706D0236832
:103AB00004221A62E26E42F00202E26602070AD5AE
:103AC00001F020022A4306D0236808221A62E26E1F
:103AD00042F00802E266E26E002A29D0800604D590
:103AE000880602D5204601F0CCFFE06E000703D423
:103AF0002068806840061CD5204601F09EFF2068A3
:103B00008168490611D5816821F040018160606EAD
:103B100058B11C494163606EFDF7F2FF002807D0E1
:103B2000606E416BBDE8704008472046FFF78BFF91
:103B300070BD2046FFF787FF0020E06670BDC5021C
:103B40000ED552020CD54FF480101862202084F854
:103B5000690084F86A002046BDE87040FFF772BF34
:103B6000020606D50A0604D52046BDE8704002F0DC
:103B700069B84006E2D54806E0D52046BDE8704069
:103B800001F069BFA359000810B5040003D094F8F0
:103B9000690010B107E0012010BD002084F8680022
:103BA000204600F027F8242084F869002068016886
:103BB00021F001010160204601F09EFF0128EBD0B9
:103BC000606A10B1204601F05AFE2068416821F475
:103BD000904141602068816821F02A01816020685D
:103BE000016841F0010101602046BDE8104001F08C
:103BF000AABE000070B586B0064614216846FCF7E0
:103C000066FB2149306888423BD12049886940F4ED
:103C100080408861886900F480400590486940F4DC
:103C2000802048614869002500F480200590C0206C
:103C300000900220CDE901050320039007200490A5
:103C400069461348FEF746F8134C124820601020CE
:103C5000C4E901058020C4E9030580016561C4E968
:103C600006502046FDF7C5FF08B1FDF7EDF93466B3
:103C70000022052125206662FEF75AFE2520FEF768
:103C80004BFE06B070BD000000380140001002403D
:103C900000040048440002404C07002090F86A30BD
:103CA000202B3FD1B9B1B2B190F86830012B39D097
:103CB000012380F868304165A0F85820A0F85A2008
:103CC0008168FF22B1F5805F07D07F2351B1B1F148
:103CD000805F0CD010E001207047016921B940F2EB
:103CE000FF1107E00169D1B9A0F85C2004E0016987
:103CF000A9B13F21A0F85C100021C166222280F802
:103D00006A2080F8681001688A6842F001028A60BF
:103D10000068016841F49071016000207047A0F8CC
:103D20005C30E9E7022070477047000070B5044638
:103D300090F86900202834D181B37AB394F86800F0
:103D400001282ED0012084F8680044F84C1FA2807E
:103D5000E2800025256221206077616912481346C0
:103D6000886261691148C8626169114808636069C5
:103D7000456354F84C6C216806F128026069FDF730
:103D80005FFF54F84C1C40200862257754F84C0C17
:103D9000816841F080018160002070BDFFE7012053
:103DA000FBE70220F9E70000015A0008315A000839
:103DB000B75900087047704710B5054840240460A3
:103DC00002210448FEF710F901481030046010BDCC
:103DD000180800488C040020062911D2DFE801F001
:103DE0000911171D23030068D0F8841341F0010165
:103DF00004E00068D0F8841341F00201C0F8841395
:103E000070470068D0F8841341F00401F6E70068B9
:103E1000D0F8841341F00801F0E70068D0F884136B
:103E200041F01001EAE70068D0F8841341F0200166
:103E3000E4E710B504460068D0F88813C943C90701
:103E40000AD1D0F89013C943C90705D10121C0F8A0
:103E50008C132046FEF7C3F82068D0F88813C943B6
:103E600089070AD4D0F89013C943890705D40221E1
:103E7000C0F88C132046FEF7B3F82068D0F88813FA
:103E8000C94349070AD4D0F89013C943490705D458
:103E90000421C0F88C132046FEF7A3F82068D0F860
:103EA0008813C94309070AD4D0F89013C9430907F6
:103EB00005D40821C0F88C132046FEF793F820683B
:103EC000D0F88813C943C9060AD4D0F89013C9435F
:103ED000C90605D41021C0F88C132046FEF783F8DC
:103EE0002068D0F88813C94389060AD4D0F8901303
:103EF000C943890605D42021C0F88C132046FEF75B
:103F000059F910BD70B504460068D0F888134FF019
:103F10000105C943C9030FD4D0F89013C943C9039D
:103F20000AD42904C0F88C1384F8C150002084F806
:103F3000C0002046FDF7FDFF2068D0F88813C94374
:103F400089030BD4D0F89013C943890306D44FF4E6
:103F50000031C0F88C132046FDF7E3FF206841686C
:103F6000C943C90708D1C168C943C90704D18560DD
:103F700005212046FDF7D8FF20684168C94389071D
:103F800009D4C168C943890705D40221816005218C
:103F90002046FDF7CAFF20684168C943490709D494
:103FA000C168C943490705D4042181600521204621
:103FB000FDF7BCFF20684168C943090709D4C168FF
:103FC000C943090705D40821816005212046FDF772
:103FD000AEFF20684168C943C90609D4C168C94316
:103FE000C90605D41021816005212046FEF7E0F8BE
:103FF00020684168C943890608D4C168C943890655
:1040000004D4202181602046FEF7D3F8206841685F
:10401000C943490609D4C168C943490605D44021AA
:10402000816005212046FEF7C2F870BDF0B5E42599
:10403000D0F800C005EBC1164FF0FF345CF80670F5
:10404000B82505EBC1155CF80550202A27D00CDCFB
:10405000042A15D004DC012A12D0022A2DD11EE038
:10406000082A1CD0102A28D10AE0402A08D0802A29
:1040700015D0B2F5807F03D0B2F5007F1DD10EE0E0
:10408000BC2404EBC1145A684CF804204FF0C00C57
:1040900004680CEBC1119A68625000240DE0C4243E
:1040A00004EBC1145A684CF804204FF0C80C0468A3
:1040B0000CEBC1119A6862501024FE21A1408F437D
:1040C00019681A69A1403943DF689446A7400F4335
:1040D000A2403A435F699969A7401743A140394319
:1040E000BCF1080F06D1AA0504D4AA0102D4DA69EA
:1040F000A240114300688151F0BD2DE9F041064610
:1041000088460068842202EBC817C1594FF08C0220
:10411000C943CB0702EBC8154FF08801424601EBBB
:10412000C81409D14159C943C90705D10121015119
:1041300011463046FDF7F8FE3068C159C94389077A
:1041400009D44159C943890705D402210151414687
:104150003046FDF7EAFE3068C159C943490709D422
:104160004159C943490705D404210151414630460C
:10417000FDF7DCFE3068C159C943090709D441592C
:10418000C943090705D40821015141463046FDF7CE
:10419000CEFE3068C159C943C90609D44159C94343
:1041A000C90605D41021015141463046FEF700F8FA
:1041B0003068C159C943490609D44159C943490620
:1041C00005D44021015141463046FDF7F0FF3068EB
:1041D000C159C943090609D44159C943090605D43F
:1041E0008021015141463046FDF79CFE3068C1599F
:1041F000C943C9050AD44159C943C90506D44FF476
:104200008071015141463046FDF78DFE3068C1593D
:10421000C94389050AD44159C943890506D44FF4D5
:104220000071015141463046FDF79DFF3068C1598C
:10423000C94349050AD44159C943490506D44FF435
:104240008061015141463046FDF78CFF3068C1590D
:10425000C94309050AD44159C943090506D44FF495
:104260000061015141463046FDF77FFF3068C1597A
:10427000C943C9040AD44159C943C90406D44FF4F7
:104280008051015141463046FDF76EFF3068C159FB
:10429000C94389040AD44159C943890406D44FF457
:1042A0000051015141463046FDF742FE3068C15988
:1042B000C94349040AD44159C943490406D44FF4B7
:1042C0008041015141463046FDF788FEBDE8F0814E
:1042D0002DE9F84F8024036804EBC117DC5924F062
:1042E0007044DC510668F559E82303EBC1130093D1
:1042F00056F803A0E42303EBC1139E46F458D423DD
:1043000003EBC1139B46F358D6F8A03325F0200CDD
:10431000556945EA0C0525F4006C956945EA0C05DC
:1043200025F4806CD56945EA0C0525F0C06C156A4A
:1043300045EA0C0525F0006C556A45EA0C0525F0A8
:10434000704C956A45EA0C05D2F830C025F400356A
:10435000BCF1005F01D145F4003525F0400C556BF0
:1043600045EA0C0C2CF48028D2F850C04CEA080C1A
:104370002CF0FC78D2F848C04CEA080992F838C012
:104380002AF01F080CF01F0C4CEA080C2CF0004817
:10439000D2F83CC04CEA080C25B924F48078146C9F
:1043A00044EA0804D2F84480B8F5606F02D0B8F54A
:1043B000F05F01D1402D03D124F4F05448EA040405
:1043C000D56C052921D2DFE801F003090F151B0088
:1043D000D26A23F4003141EA420316E0D26A23F4A0
:1043E000802141EA820310E0D26A23F4002141EAED
:1043F000C2030AE0D26A23F4801141EA021304E006
:10440000D26A23F4001141EA421346F80790026889
:10441000009942F801C0026842F80E40026842F872
:104420000B500068C0F8A033BDE8F88FFEE700002D
:104430000148FEF76DB80000680500200148FEF74E
:1044400098B800006805002010B5406A01684A6805
:1044500042F400424A60826B00215163C26B516397
:1044600090F84110602902D0FEF78BF810BD202192
:1044700080F84110FEF74AF810BD406A01684A68AA
:1044800042F400424A60102100F0D2B810B5446AEC
:104490002068016821F480410160608D40B1218D68
:1044A000606A01446162608DFF2807D9FF2006E041
:1044B0002046BDE81040122100F034B8608D208500
:1044C000226883B22832A06BFDF7BAFBF0E710B583
:1044D0000022CC074FF0280306D090F8414042223A
:1044E00033EA040400D0F2228C0707D590F841404B
:1044F00042F04402A34301D042F0B0024B0701D581
:1045000042F0B80211238B4301D142F090021223F2
:104510008B4301D142F06002006801689143016061
:10452000002010BD30B5154D1223446B00228B4383
:10453000AC4202D0124DAC420BD14C0700D5B82290
:1045400011248C4301D142F0900283B942F0600201
:104550000DE04C0700D5B822CC0701D042F0F202A2
:10456000890701D542F0F4020BB942F0200200683D
:10457000016811430160002030BD0000B14900080E
:10458000954B000801688A69D243920701D4002242
:104590008A6200688169C943C90703D0816941F013
:1045A0000101816170472DE9F041044690F8410016
:1045B0002821814320684FF000054FF0080304D004
:1045C000C36184F84050BDE8F0818169C1F30047C0
:1045D0008169FE2202EA11468168C1F30902C168BD
:1045E000D4F80CC001F0FE01BCF1020F13D14FF062
:1045F000060C06F006060CEAD21C66450AD1A16C30
:10460000491CA164A16C0229DDD1A564C36184F8B1
:10461000405007E00E4604212046FFF758FF84F87B
:104620004050324639462046FDF771FFCBE7000087
:1046300070B50025044680F842503248E062658536
:10464000606C0843606494F841002026282827D035
:1046500094F84100292823D094F841002A281FD03B
:1046600007212046FFF733FF94F84100602801D06E
:1046700084F8416025636563206801684A04224923
:10468000026818D522F480420260A06B416384F86E
:104690004050A06BFDF734FA002829D0A06B1AE037
:1046A00003212046FFF713FF282084F841002563EB
:1046B00016486063E0E7120411D5026822F4004254
:1046C0000260E06B416384F84050E06BFDF718FA3C
:1046D00000280DD0E06B416BBDE87040084794F8AE
:1046E0004100602805D084F840502046FDF749FF7E
:1046F00070BD84F8416084F840502046FDF706FF05
:1047000070BD00000000FFFF49440008014C000894
:1047100070B504461448E06200252563202084F823
:10472000410084F842506563480710D52068416A0B
:10473000606A421C62620170208D40B1401E20857B
:10474000608D401E6085606C40F00400606407214D
:104750002046FFF7BCFE21681020C86184F8405055
:104760002046FDF76FFF70BD0000FFFF70B50446E7
:1047700000682026C66120684268274B1A404260C4
:104780000025256325486563E062C80606D52168D3
:104790001020C861606C40F0040060642046FFF7A0
:1047A000F1FE03212046FFF792FE606CC8B994F831
:1047B0004100602815D094F84100212817D094F8C2
:1047C000410022280CD184F8416094F8420084F81A
:1047D0004250402884F84050204619D0FDF733FF5E
:1047E00070BD616C2046BDE87040FFF721BF84F8C2
:1047F000416094F8420084F84250402884F84050C8
:10480000204602D0FDF720FF70BDFDF79CFF70BD74
:10481000FDF798FF70BD000000E800FE0000FFFFFC
:1048200070B50025044680F8425090F841102020D1
:10483000212984F841000CD0122020630221204657
:104840006563FFF744FE84F840502046FDF7FBFE09
:1048500070BD11202063012120466563FFF737FEFC
:1048600084F840502046FDF7EFFE70BD70B5044659
:10487000006820250E46C56121680820C86107210F
:104880002046FFF724FE2068416841F40041416062
:10489000206841682F4A114041602046FFF772FEB0
:1048A00020680168490402D40168090407D594F816
:1048B0004110212930D0E16B096849686185618D1B
:1048C00019B1616C41F00401616471070FD5416A4F
:1048D000606A421C62620170208D40B1401E2085DA
:1048E000608D401E6085606C40F0040060640020B4
:1048F000206384F842006063616C79B1616C20468A
:10490000FFF796FE94F84100282813D1314620463F
:10491000BDE87040FFF7FCBEA16BCDE7E26A0E492F
:104920008A4208D0E16284F8415084F84000204671
:10493000FDF788FE70BD94F8411084F8415022299B
:1049400084F84000204602D0FDF777FF70BDFDF7E8
:1049500073FF70BD00E800FE0000FFFF70B500258A
:10496000044680F8425090F841102820292911D09F
:1049700094F841102A290CD184F8410022202063A8
:1049800002212046FFF7A3FD84F840502046FDF7A2
:1049900053FF70BD84F8410021202063012120468F
:1049A000FFF795FD84F840502046FDF746FF70BDA7
:1049B00038B5044690F84000012817D0012084F84B
:1049C0004000C8064FF0000512D5D00610D521686A
:1049D0001020C861606C40F0040060641221204621
:1049E000FFF7A0FD2046FFF7CDFD3FE0022038BDD8
:1049F000080634D5500632D52068016821F0400100
:104A00000160608D30B320684068C0F30901608D9B
:104A1000FF2804D9FF2020854FF0807303E0608DCC
:104A200020854FF00073009594F82820204600F070
:104A30006FF9608D218D401A608594F8410022281D
:104A40002068016803D041F4804101600EE041F428
:104A50000041FAE740212046FFF7EAFD06E088061C
:104A600004D5900602D52046FFF780FE84F840501A
:104A7000002038BDF8B5044690F8400015460E46B3
:104A8000012813D0012084F84000F0064FF0000701
:104A90000ED5E8060CD521681020C861606C40F086
:104AA000040060642046FFF76DFD54E00220F8BD6D
:104AB000700708D5680706D52068416A606A421CFD
:104AC0006262017009E0B0070ED5A8070CD5606AD4
:104AD000411C6162216800788862208D401E20851B
:104AE000608D401E608536E0294A300629D568066B
:104AF00027D5208D00BB608DF0B120684068C0F3E1
:104B00000901608DFF2805D9FF2222854FF08073AF
:104B100000970DE0608D2085E06A0097904203D0F9
:104B2000E36A94F8282003E094F828204FF00073FB
:104B3000204600F0EDF80EE020684068800122D5A4
:104B400005E0700607D5680605D5608D78B140216F
:104B50002046FFF76DFDB00605D5A80603D5314602
:104B60002046FFF703FE84F840700020F8BD20685F
:104B700041688901EFD4E16A914204D1416841F46E
:104B800080414160E7E72046FFF74AFEE3E7000087
:104B90000000FFFF10B5044690F84000012817D030
:104BA000012084F84000C80616D5D00614D594F824
:104BB000410021280ED0E06B0068406810210028D9
:104BC0002068C16117D0606C40F00400606412E09E
:104BD000022010BDA06BEFE7080705D5100703D52D
:104BE00021680820C86106E0880604D5900602D531
:104BF0002046FFF73BFE002084F8400010BD000077
:104C000070B5044690F8400015460E46012811D0B4
:104C1000012084F840003D49F0062ED5E8062CD549
:104C2000628D102042B12168C861606C40F00400C0
:104C300060645FE0022070BDE36A4FF0007293424F
:104C400002D0E36A934203D194F84120282A09D084
:104C5000E26A8A4203D094F84110292907D02168DA
:104C6000C86147E031462046FFF752FD42E0216827
:104C7000C8612046FFF786FC39E0700715D5680744
:104C800013D5608D58B12068426A606A431C636224
:104C90000270208D401E2085608D401E6085608DD5
:104CA00040BBE06A884222D124E0300706D52807BD
:104CB00004D531462046FFF776FC1BE0B00719D536
:104CC000A80717D5608D60B1606A411C61622168D8
:104CD00000788862608D401E6085208D401E208592
:104CE00008E0E06AB0F1807F01D0E06A10B92046A8
:104CF000FFF734FEB00605D5A80603D53146204699
:104D0000FFF7B4FD002084F8400070BD0000FFFFF5
:104D1000F0B50568059C68684FF48066064FC1F3DE
:104D2000090106EA545641EA02413E431943B043A1
:104D3000214308436860F0BDFF63FF032DE9F0479E
:104D4000644D00262DED028B66202E706E70A870CB
:104D50004FF03A0A85F803A0A81CFBF7C3FAA87223
:104D60003024EC722C736C73AC73EC7305F10B0094
:104D7000FBF7B8FAE8746B202875482068757A202C
:104D8000A87505F11400FBF7ADFA28779FED520ADC
:104D9000012785ED080A85F82470503D4FF00A0878
:104DA00085F800806E704FF0200985F80290A81CED
:104DB000FBF798FAA872EC722C736C73AC7305F164
:104DC0000B00FBF78FFAE8745620287505F11400E4
:104DD000FBF788FA28779FED418A85ED088A85F8E8
:104DE00024702835A81C85F800806F7085F8029023
:104DF000FBF778FAA872EC722C736C73AC7305F144
:104E00000B00FBF76FFAE8744120287505F11400D8
:104E1000FBF768FA287785ED088A85F82470503505
:104E200074202E706F70A8703120E87085F804A08F
:104E3000A81CFBF757FAA872EC722C736C7305F17F
:104E40000B00FBF74FFAE874DF20287543206875E4
:104E500005F11400FBF746FA2877B3EE040A85ED56
:104E6000080A85F824602835A81C85F800806F7032
:104E700085F80290FBF736FAA872EC722C736C730B
:104E800005F10B00FBF72EFAE8746E242C757320E5
:104E9000687505F11400FBF725FA28779FED100AD5
:104EA00005F1280085ED080A85F824605821C0E93D
:104EB0000041192181604621C160016114214161D5
:104EC000C0E90616066246628662BDEC028BBDE84A
:104ED000F087000054020020CDCCF6420000000014
:104EE0000080FF43F0B589B0002406940794182190
:104EF00068460894FBF7EBF936484FF0A0410125CE
:104F0000C0E900148460C46105614462C0E90B54C7
:104F10000726C460066204274463C0E905748463FD
:104F2000FCF7EAFB08B1FCF78FF806A929480694BC
:104F3000FCF796F808B1FCF787F8CDE90264009514
:104F400001950494694623480594FCF7F7F808B1E5
:104F5000FCF77AF802200090019069461D48FCF7A2
:104F6000EDF808B1FCF770F8032000900190694655
:104F70001848FCF7E3F808B1FCF766F800976946B3
:104F800014480197FCF7DAF808B1FCF75DF8102037
:104F900000900520019069460E48FCF7CFF808B153
:104FA000FCF752F81120009006200190694609484C
:104FB000FCF7C4F808B1FCF747F81220CDE9000669
:104FC00069460448FCF7BAF8002801D0FCF73CF821
:104FD00009B0F0BD5C03002070B586B018216846AA
:104FE000FBF775F91F481E490024C0E900148460CE
:104FF0000125C46105614462C0E90B540326C46005
:10500000066204214463C0E905148463FCF774FB61
:1050100008B1FCF719F80720CDE9020400950195C5
:10502000049469460F480594FCF788F808B1FCF72A
:105030000BF802200090019069460A48FCF77EF8C0
:1050400008B1FCF701F81220CDE9000669460548D1
:10505000FCF774F8002801D0FBF7F6FF06B070BD2E
:1050600000010050B0030020194808B5416941F023
:10507000010141614069002200F00100009005211A
:105080000B20FDF755FC0B20FDF746FC0022052107
:105090000C20FDF74DFC0C20FDF73EFC0022052105
:1050A0000D20FDF745FC0D20FDF736FC0022052103
:1050B0000E20FDF73DFC0E20FDF72EFC0022052101
:1050C0001020FDF735FCBDE808401020FDF724BC9A
:1050D0000010024010B590B0142211496846FBF749
:1050E000DDF80021684602F0F3FE0E4C0C49142254
:1050F0002060143105A8FBF7D1F8002105A802F0C3
:10510000E7FE07496060142228310AA8FBF7C6F8B9
:1051100000210AA802F0DCFEA06010B010BD000063
:105120002C89000898000020F0B587B0142168464B
:10513000FBF7CDF82A48416941F4002141614169FA
:1051400001F400210591416941F480014161416907
:1051500001F480010591416941F4003141614169E7
:1051600001F400310591416941F4802141614069B8
:105170001C4E00F4802041F2F005059000222946E3
:105180003046FCF76CFE184F002213213846FCF71E
:1051900066FE00244FF46040CDE9000469463046C5
:1051A0000294FCF797FD00950125CDE9015469466D
:1051B00030460394FCF78EFD13200090CDE9015496
:1051C000694638460394FCF785FD2803CDE90004C1
:1051D00069464FF090400294FCF77CFD07B0F0BDAB
:1051E00000100240000800480004004830B5B1B08B
:1051F0001C2126A8FBF76BF800242D942E942F94E5
:10520000542168463094FBF762F824211DA8FBF76F
:105210005EF8202115A8FBF75AF848484649C0E92E
:1052200000148460FCF7EAFE08B1FBF70DFF0021D3
:105230004248FCF77FFE08B1FBF706FF0A213F4812
:10524000FCF794FF08B1FBF7FFFE022026900C202C
:10525000CDE927044FF40040CDE929402B9426A93D
:1052600036482C94FCF706FE08B1FBF7EDFE4FF430
:105270000050CDE92D0408252DAA02212F48CDE9A3
:105280002F45FCF798FF08B1FBF7DEFE4FF4806076
:10529000CDE9000401200294CDE903402020CDE9AE
:1052A00005040794089409940A940B940C940D94A3
:1052B000C0000E94CDE90F401194129413946A46E5
:1052C00002211E481494FDF770F808B1FBF7BCFEEC
:1052D0001D941E941F94209421942294239424942A
:1052E0001DAA022115482594FCF744FE08B1FBF7DE
:1052F000ABFE04201795CDE91540CDE918041A94AA
:105300001B9415AB102202210C481C94FCF7BCFF27
:1053100008B1FBF799FE169415AB2022022107482D
:105320001794FCF7B1FF08B1FBF78EFE0348FCF7BA
:10533000E1FE31B030BD0000007401408C0400205B
:10534000134810B511490160124941600021012242
:10535000C0E90212016141618161C1610162FDF731
:1053600015F908B1FBF770FE00210948FDF77AF83E
:1053700008B1FBF769FE00210548FDF79EF80028FB
:1053800003D0BDE81040FBF75FBE10BD00540040E5
:1053900068050020BC7D70100B4810B509490160FC
:1053A00000217F22C0E90112FF22C0E903214161EF
:1053B0008161FDF7B9FF002803D0BDE81040FBF77D
:1053C00043BE10BD002800403C06002010B58CB044
:1053D00024216846FAF77BFF0024174809940A94B1
:1053E00014490B94C0E900146421C0E9024104612E
:1053F00044618461022001AB0121009083E8130025
:105400000F22CDE90420CDE90614089269460A4826
:10541000FEF760F808B1FBF717FE09940A9409A992
:1054200005480B94FEF708F8002801D0FBF70CFEA6
:105430000CB010BD002C01405C06002030B587B0D8
:105440000024204805940694049400940194029446
:105450001B49039401604FF47A41C0E901144EF6F0
:105460006021C0E903148461FEF783F908B1FBF7FA
:10547000EBFD049404A913480694FDF7DDFF08B181
:10548000FBF7E2FD022501200095CDE901040F2084
:105490000390082269460B48FEF7DCF808B1FBF7D9
:1054A000D3FDCDE900450C22694606480394FEF77A
:1054B000D1F8002801D0FBF7C7FD07B030BD0000D0
:1054C000000400409C0600200D4810B50B49016007
:1054D0004FF4E1314160002181600C22C160C0E9DC
:1054E00004128161C16101624162FEF74DFB002837
:1054F00003D0BDE81040FBF7A7BD10BD0038014048
:10550000DC060020FEE770470907090E002806DACE
:1055100000F00F0000F1E02080F8141D704700F14A
:10552000E02080F80014704770B504460068C16838
:10553000490614D44FF0FF31C160FCF795FC0546D5
:105540004FF47A7607E000BFFCF78EFC401BB042B8
:1055500001D9032070BD2068C0684006F4D5002042
:1055600070BD10B504464178007802F037FCA17A8E
:10557000A01C02F021FCE17C04F10B0002F01CFCF9
:10558000217F04F11400BDE8104002F015BC0000BA
:105590007CB504460078A17A0844C0B2617802F074
:1055A0001DFC206AFAF7C1FECDE9000104F10B00F1
:1055B00094F82430E27C05A1054601F079FEE17CF7
:1055C0002846BDE87C4002F0F7BB0000252A2E2AC1
:1055D0006600000001F040B901F076BA01F04EBA61
:1055E00010B5502080F31188BFF34F8FBFF36F8F3A
:1055F00003F0D4F818B104494FF08050086000203F
:1056000080F3118810BD000004ED00E070B596B085
:1056100028216846FAF75BFE142111A8FAF757FE15
:105620001C210AA8FAF753FE0A2000900120102539
:105630000226CDE90405CDE9060600244FF46010EA
:10564000CDE908406846FDF79DFB08B1FBF7FCFC7F
:105650000F20CDE911064FF48060CDE913400221FF
:1056600011A81594FDF76AFA08B1FBF7EDFC0A489A
:105670000A904FF48070CDE90D504000CDE90B0445
:10568000C000CDE90F400AA8FDF794F9002801D029
:10569000FBF7DAFC16B070BDA15001001448016898
:1056A00041F4700101601348016841F0010101609B
:1056B0004168114A114041600168104A114001607F
:1056C000016821F480210160416821F4FE014160FC
:1056D000C16A21F00F01C162016B094A11400163E7
:1056E000002181600249C0038039086070470000D2
:1056F00088ED00E0001002400CC07FF8FFFFF6FECE
:10570000CCFC00FF10B50348FEF7AEF802490120BB
:10571000086010BD5C060020140000200148FEF760
:10572000A3B800005C0600200148FEF79DB8000009
:105730009007002010B50448FEF796F8034801686A
:10574000491C016010BD00009C0600202C000020B8
:10575000F0B502681B4B1C4F4FF0804C984203D0B1
:10576000604501D0B84203D122F070044A68224358
:10577000164C174D174E984209D0604507D0B842D5
:1057800005D0A04203D0A84201D0B04203D122F4F8
:105790004077CA683A434F6922F080023A43026078
:1057A0008A68C2620A688262984205D0A04203D029
:1057B000A84201D0B04201D10969016301214161D0
:1057C000F0BD0000002C01400004004000400140FA
:1057D000004401400048014010B50123046A8B4099
:1057E0009C430462036A8A401343036210BD0000B5
:1057F00070B5046A24F0010404628469056A0F4EDE
:10580000B04208D0B0F1804F05D00D4EB04202D06A
:105810000C4EB04203D124F00304144301E044F0E1
:1058200001041A0724F0F00444EA126225F00A0386
:1058300001F00A0119438261016270BD002C014030
:10584000000400400040014030B5046A24F0100418
:1058500004628469056A24F4407444EA022222F452
:1058600070444FF6FF7202EA03322243A02425F06F
:10587000A00304EA011119438261016230BD90F86E
:105880002410C90706D001684A68836A22F40032EE
:105890001A434A6090F82410890706D501684A68BF
:1058A000C36A22F480321A434A6090F824104907F0
:1058B00006D501684A68036B22F480221A434A60C5
:1058C00090F82410090706D501684A68436B22F452
:1058D00000421A434A6090F82410C90606D50168B0
:1058E0008A68836B22F480521A438A6090F82410ED
:1058F000890606D501688A68C36B22F400521A43F0
:105900008A6090F82410490611D501684A68036C32
:1059100022F480121A434A60016CB1F5801F06D14F
:1059200001684A68436C22F4C0021A434A6090F846
:105930002410090606D501684A68806C22F400220A
:1059400002434A607047F8B500260446C666FCF775
:105950008BFA0546206800686FF07E47000708D57F
:105960002B4600224FF400112046009700F09CF9CE
:1059700060B92068006840070AD52B4600224FF422
:1059800080012046009700F08FF908B10320F8BD90
:10599000202084F8690084F86A0084F86860002098
:1059A000F8BD10B5406A0021A0F85A10A0F85210B6
:1059B000FEF749F810BD70B5446A94F869000025F7
:1059C000212808D120688068000604D5A4F8525028
:1059D000204600F04DF894F86A00222808D120688B
:1059E0008068400604D5A4F85A50204600F025F8F7
:1059F000E06E40F01000E0662046FEF724F870BD2F
:105A000010B50146406A0968096889060DD400216D
:105A1000A0F8521001688A6822F080028A6000684B
:105A2000016841F04001016010BDFEF7C3F910BDEF
:105A300010B5406AFEF7BFF910BD01680A6822F48C
:105A400090720A6001688A6822F001028A6020214F
:105A500080F86A10704710B501680A6822F04002A9
:105A60000A60202180F86910FEF7A4F9002010BD1B
:105A700001680A6822F0C0020A60202180F86910DB
:105A8000704710B5B0F85C2090F86A300168222B9E
:105A900005D0886940F008008861022010BD898C1B
:105AA0008368B3F5805F01D103696BB11140426D2A
:105AB000531C43651170B0F85A10491E0904090CB3
:105AC000A0F85A1007D015E0436D11401980416DC0
:105AD000891C4165EFE701680A6822F490720A6048
